{
  "_format": "hh-sol-artifact-1",
  "contractName": "VoterDID",
  "sourceName": "contracts/VoterDID.sol",
  "abi": [
    {
      "inputs": [],
      "stateMutability": "nonpayable",
      "type": "constructor"
    },
    {
      "anonymous": false,
      "inputs": [
        {
          "indexed": true,
          "internalType": "string",
          "name": "nationalId",
          "type": "string"
        },
        {
          "indexed": false,
          "internalType": "string",
          "name": "did",
          "type": "string"
        }
      ],
      "name": "DIDRegistered",
      "type": "event"
    },
    {
      "inputs": [
        {
          "internalType": "string",
          "name": "nationalId",
          "type": "string"
        }
      ],
      "name": "getDID",
      "outputs": [
        {
          "internalType": "string",
          "name": "",
          "type": "string"
        }
      ],
      "stateMutability": "view",
      "type": "function"
    },
    {
      "inputs": [],
      "name": "owner",
      "outputs": [
        {
          "internalType": "address",
          "name": "",
          "type": "address"
        }
      ],
      "stateMutability": "view",
      "type": "function"
    },
    {
      "inputs": [
        {
          "internalType": "string",
          "name": "nationalId",
          "type": "string"
        },
        {
          "internalType": "string",
          "name": "did",
          "type": "string"
        }
      ],
      "name": "registerDID",
      "outputs": [],
      "stateMutability": "nonpayable",
      "type": "function"
    },
    {
      "inputs": [
        {
          "internalType": "string",
          "name": "",
          "type": "string"
        }
      ],
      "name": "voterDIDs",
      "outputs": [
        {
          "internalType": "string",
          "name": "",
          "type": "string"
        }
      ],
      "stateMutability": "view",
      "type": "function"
    }
  ],
  "bytecode": "0x6080604052348015600f57600080fd5b50336000806101000a81548173ffffffffffffffffffffffffffffffffffffffff021916908373ffffffffffffffffffffffffffffffffffffffff16021790555061097b8061005f6000396000f3fe608060405234801561001057600080fd5b506004361061004c5760003560e01c80637e5c39e9146100515780638da5cb5b1461006d578063ce4d470e1461008b578063e0783898146100bb575b600080fd5b61006b6004803603810190610066919061044c565b6100eb565b005b610075610168565b6040516100829190610505565b60405180910390f35b6100a560048036038101906100a09190610520565b61018c565b6040516100b291906105e8565b60405180910390f35b6100d560048036038101906100d09190610520565b610242565b6040516100e291906105e8565b60405180910390f35b806001836040516100fc9190610646565b908152602001604051809103902090816101169190610873565b50816040516101259190610646565b60405180910390207f3821fb4ad323658be2eee296ee06377da01cc275fe45548c9b27eca563bcdbf68260405161015c91906105e8565b60405180910390a25050565b60008054906101000a900473ffffffffffffffffffffffffffffffffffffffff1681565b60018180516020810182018051848252602083016020850120818352809550505050505060009150905080546101c19061068c565b80601f01602080910402602001604051908101604052809291908181526020018280546101ed9061068c565b801561023a5780601f1061020f5761010080835404028352916020019161023a565b820191906000526020600020905b81548152906001019060200180831161021d57829003601f168201915b505050505081565b60606001826040516102549190610646565b9081526020016040518091039020805461026d9061068c565b80601f01602080910402602001604051908101604052809291908181526020018280546102999061068c565b80156102e65780601f106102bb576101008083540402835291602001916102e6565b820191906000526020600020905b8154815290600101906020018083116102c957829003601f168201915b50505050509050919050565b6000604051905090565b600080fd5b600080fd5b600080fd5b600080fd5b6000601f19601f8301169050919050565b7f4e487b7100000000000000000000000000000000000000000000000000000000600052604160045260246000fd5b61035982610310565b810181811067ffffffffffffffff8211171561037857610377610321565b5b80604052505050565b600061038b6102f2565b90506103978282610350565b919050565b600067ffffffffffffffff8211156103b7576103b6610321565b5b6103c082610310565b9050602081019050919050565b82818337600083830152505050565b60006103ef6103ea8461039c565b610381565b90508281526020810184848401111561040b5761040a61030b565b5b6104168482856103cd565b509392505050565b600082601f83011261043357610432610306565b5b81356104438482602086016103dc565b91505092915050565b60008060408385031215610463576104626102fc565b5b600083013567ffffffffffffffff81111561048157610480610301565b5b61048d8582860161041e565b925050602083013567ffffffffffffffff8111156104ae576104ad610301565b5b6104ba8582860161041e565b9150509250929050565b600073ffffffffffffffffffffffffffffffffffffffff82169050919050565b60006104ef826104c4565b9050919050565b6104ff816104e4565b82525050565b600060208201905061051a60008301846104f6565b92915050565b600060208284031215610536576105356102fc565b5b600082013567ffffffffffffffff81111561055457610553610301565b5b6105608482850161041e565b91505092915050565b600081519050919050565b600082825260208201905092915050565b60005b838110156105a3578082015181840152602081019050610588565b60008484015250505050565b60006105ba82610569565b6105c48185610574565b93506105d4818560208601610585565b6105dd81610310565b840191505092915050565b6000602082019050818103600083015261060281846105af565b905092915050565b600081905092915050565b600061062082610569565b61062a818561060a565b935061063a818560208601610585565b80840191505092915050565b60006106528284610615565b915081905092915050565b7f4e487b7100000000000000000000000000000000000000000000000000000000600052602260045260246000fd5b600060028204905060018216806106a457607f821691505b6020821081036106b7576106b661065d565b5b50919050565b60008190508160005260206000209050919050565b60006020601f8301049050919050565b600082821b905092915050565b60006008830261071f7fffffffffffffffffffffffffffffffffffffffffffffffffffffffffffffffff826106e2565b61072986836106e2565b95508019841693508086168417925050509392505050565b6000819050919050565b6000819050919050565b600061077061076b61076684610741565b61074b565b610741565b9050919050565b6000819050919050565b61078a83610755565b61079e61079682610777565b8484546106ef565b825550505050565b600090565b6107b36107a6565b6107be818484610781565b505050565b5b818110156107e2576107d76000826107ab565b6001810190506107c4565b5050565b601f821115610827576107f8816106bd565b610801846106d2565b81016020851015610810578190505b61082461081c856106d2565b8301826107c3565b50505b505050565b600082821c905092915050565b600061084a6000198460080261082c565b1980831691505092915050565b60006108638383610839565b9150826002028217905092915050565b61087c82610569565b67ffffffffffffffff81111561089557610894610321565b5b61089f825461068c565b6108aa8282856107e6565b600060209050601f8311600181146108dd57600084156108cb578287015190505b6108d58582610857565b86555061093d565b601f1984166108eb866106bd565b60005b82811015610913578489015182556001820191506020850194506020810190506108ee565b86831015610930578489015161092c601f891682610839565b8355505b6001600288020188555050505b50505050505056fea2646970667358221220c3689805d61898aa6a7c3cd3f08840db088cea3fde40b0a2efe7ae1df6c8e4dc64736f6c634300081c0033",
  "linkReferences": {},
  "deployedLinkReferences": {}
}