{
  "_format": "hh-sol-artifact-1",
  "contractName": "VoterDID",
  "sourceName": "contracts/VoterDID.sol",
  "abi": [
    {
      "inputs": [],
      "stateMutability": "nonpayable",
      "type": "constructor"
    },
    {
      "anonymous": false,
      "inputs": [
        {
          "indexed": false,
          "internalType": "string",
          "name": "nationalId",
          "type": "string"
        },
        {
          "indexed": false,
          "internalType": "string",
          "name": "oldDid",
          "type": "string"
        },
        {
          "indexed": false,
          "internalType": "string",
          "name": "newDid",
          "type": "string"
        }
      ],
      "name": "VoterDIDUpdated",
      "type": "event"
    },
    {
      "anonymous": false,
      "inputs": [
        {
          "indexed": false,
          "internalType": "string",
          "name": "nationalId",
          "type": "string"
        },
        {
          "indexed": false,
          "internalType": "string",
          "name": "did",
          "type": "string"
        }
      ],
      "name": "VoterRegistered",
      "type": "event"
    },
    {
      "inputs": [],
      "name": "admin",
      "outputs": [
        {
          "internalType": "address",
          "name": "",
          "type": "address"
        }
      ],
      "stateMutability": "view",
      "type": "function"
    },
    {
      "inputs": [
        {
          "internalType": "string",
          "name": "nationalId",
          "type": "string"
        }
      ],
      "name": "getDID",
      "outputs": [
        {
          "internalType": "string",
          "name": "",
          "type": "string"
        }
      ],
      "stateMutability": "view",
      "type": "function"
    },
    {
      "inputs": [
        {
          "internalType": "uint256",
          "name": "index",
          "type": "uint256"
        }
      ],
      "name": "getNationalIdByIndex",
      "outputs": [
        {
          "internalType": "string",
          "name": "",
          "type": "string"
        }
      ],
      "stateMutability": "view",
      "type": "function"
    },
    {
      "inputs": [],
      "name": "getTotalVoters",
      "outputs": [
        {
          "internalType": "uint256",
          "name": "",
          "type": "uint256"
        }
      ],
      "stateMutability": "view",
      "type": "function"
    },
    {
      "inputs": [
        {
          "internalType": "string",
          "name": "nationalId",
          "type": "string"
        }
      ],
      "name": "getVoterDID",
      "outputs": [
        {
          "internalType": "string",
          "name": "",
          "type": "string"
        }
      ],
      "stateMutability": "view",
      "type": "function"
    },
    {
      "inputs": [
        {
          "internalType": "string",
          "name": "nationalId",
          "type": "string"
        }
      ],
      "name": "isVoterRegistered",
      "outputs": [
        {
          "internalType": "bool",
          "name": "",
          "type": "bool"
        }
      ],
      "stateMutability": "view",
      "type": "function"
    },
    {
      "inputs": [
        {
          "internalType": "string",
          "name": "nationalId",
          "type": "string"
        },
        {
          "internalType": "string",
          "name": "did",
          "type": "string"
        }
      ],
      "name": "registerDID",
      "outputs": [],
      "stateMutability": "nonpayable",
      "type": "function"
    },
    {
      "inputs": [
        {
          "internalType": "string",
          "name": "did",
          "type": "string"
        },
        {
          "internalType": "string",
          "name": "nationalId",
          "type": "string"
        }
      ],
      "name": "registerVoter",
      "outputs": [],
      "stateMutability": "nonpayable",
      "type": "function"
    },
    {
      "inputs": [
        {
          "internalType": "address",
          "name": "newAdmin",
          "type": "address"
        }
      ],
      "name": "transferAdmin",
      "outputs": [],
      "stateMutability": "nonpayable",
      "type": "function"
    },
    {
      "inputs": [
        {
          "internalType": "string",
          "name": "nationalId",
          "type": "string"
        },
        {
          "internalType": "string",
          "name": "did",
          "type": "string"
        }
      ],
      "name": "verifyDID",
      "outputs": [
        {
          "internalType": "bool",
          "name": "",
          "type": "bool"
        }
      ],
      "stateMutability": "view",
      "type": "function"
    }
  ],
  "bytecode": "0x6080604052348015600f57600080fd5b50336000806101000a81548173ffffffffffffffffffffffffffffffffffffffff021916908373ffffffffffffffffffffffffffffffffffffffff16021790555061150c8061005f6000396000f3fe608060405234801561001057600080fd5b506004361061009e5760003560e01c80638a4c8847116100665780638a4c8847146101595780639e6adbc414610175578063dd5c4bad146101a5578063e0783898146101d5578063f851a440146102055761009e565b806308eff0a2146100a357806351ed929b146100d357806375829def14610103578063793cf2181461011f5780637e5c39e91461013d575b600080fd5b6100bd60048036038101906100b89190610bb1565b610223565b6040516100ca9190610c79565b60405180910390f35b6100ed60048036038101906100e89190610cd1565b6102d3565b6040516100fa9190610c79565b60405180910390f35b61011d60048036038101906101189190610d5c565b6103ca565b005b61012761050a565b6040516101349190610d98565b60405180910390f35b61015760048036038101906101529190610db3565b610517565b005b610173600480360381019061016e9190610db3565b6105b3565b005b61018f600480360381019061018a9190610bb1565b6108e8565b60405161019c9190610e46565b60405180910390f35b6101bf60048036038101906101ba9190610db3565b61091d565b6040516101cc9190610e46565b60405180910390f35b6101ef60048036038101906101ea9190610bb1565b610a21565b6040516101fc9190610c79565b60405180910390f35b61020d610a33565b60405161021a9190610e70565b60405180910390f35b60606001826040516102359190610ec7565b9081526020016040518091039020805461024e90610f0d565b80601f016020809104026020016040519081016040528092919081815260200182805461027a90610f0d565b80156102c75780601f1061029c576101008083540402835291602001916102c7565b820191906000526020600020905b8154815290600101906020018083116102aa57829003601f168201915b50505050509050919050565b6060600380549050821061031c576040517f08c379a000000000000000000000000000000000000000000000000000000000815260040161031390610f8a565b60405180910390fd5b600382815481106103305761032f610faa565b5b90600052602060002001805461034590610f0d565b80601f016020809104026020016040519081016040528092919081815260200182805461037190610f0d565b80156103be5780601f10610393576101008083540402835291602001916103be565b820191906000526020600020905b8154815290600101906020018083116103a157829003601f168201915b50505050509050919050565b60008054906101000a900473ffffffffffffffffffffffffffffffffffffffff1673ffffffffffffffffffffffffffffffffffffffff163373ffffffffffffffffffffffffffffffffffffffff1614610458576040517f08c379a000000000000000000000000000000000000000000000000000000000815260040161044f9061104b565b60405180910390fd5b600073ffffffffffffffffffffffffffffffffffffffff168173ffffffffffffffffffffffffffffffffffffffff16036104c7576040517f08c379a00000000000000000000000000000000000000000000000000000000081526004016104be906110dd565b60405180910390fd5b806000806101000a81548173ffffffffffffffffffffffffffffffffffffffff021916908373ffffffffffffffffffffffffffffffffffffffff16021790555050565b6000600380549050905090565b60008054906101000a900473ffffffffffffffffffffffffffffffffffffffff1673ffffffffffffffffffffffffffffffffffffffff163373ffffffffffffffffffffffffffffffffffffffff16146105a5576040517f08c379a000000000000000000000000000000000000000000000000000000000815260040161059c9061104b565b60405180910390fd5b6105af81836105b3565b5050565b60008054906101000a900473ffffffffffffffffffffffffffffffffffffffff1673ffffffffffffffffffffffffffffffffffffffff163373ffffffffffffffffffffffffffffffffffffffff1614610641576040517f08c379a00000000000000000000000000000000000000000000000000000000081526004016106389061104b565b60405180910390fd5b6000815111610685576040517f08c379a000000000000000000000000000000000000000000000000000000000815260040161067c90611149565b60405180910390fd5b60008251116106c9576040517f08c379a00000000000000000000000000000000000000000000000000000000081526004016106c0906111b5565b60405180910390fd5b6002816040516106d99190610ec7565b908152602001604051809103902060009054906101000a900460ff161561081257600060018260405161070c9190610ec7565b9081526020016040518091039020805461072590610f0d565b80601f016020809104026020016040519081016040528092919081815260200182805461075190610f0d565b801561079e5780601f106107735761010080835404028352916020019161079e565b820191906000526020600020905b81548152906001019060200180831161078157829003601f168201915b50505050509050826001836040516107b69190610ec7565b908152602001604051809103902090816107d09190611381565b507fe6432cf1e369dff2098f265b31fd4332223b20860fc89f185dabebcf811c50fb82828560405161080493929190611453565b60405180910390a1506108e4565b816001826040516108239190610ec7565b9081526020016040518091039020908161083d9190611381565b5060016002826040516108509190610ec7565b908152602001604051809103902060006101000a81548160ff0219169083151502179055506003819080600181540180825580915050600190039060005260206000200160009091909190915090816108a99190611381565b507fedb4aee7629b610f2d1efa29f794dd215eab9c3efb8bc2724112c061be05a21181836040516108db92919061149f565b60405180910390a15b5050565b60006002826040516108fa9190610ec7565b908152602001604051809103902060009054906101000a900460ff169050919050565b6000806001846040516109309190610ec7565b9081526020016040518091039020805461094990610f0d565b80601f016020809104026020016040519081016040528092919081815260200182805461097590610f0d565b80156109c25780601f10610997576101008083540402835291602001916109c2565b820191906000526020600020905b8154815290600101906020018083116109a557829003601f168201915b50505050509050826040516020016109da9190610ec7565b6040516020818303038152906040528051906020012081604051602001610a019190610ec7565b604051602081830303815290604052805190602001201491505092915050565b6060610a2c82610223565b9050919050565b60008054906101000a900473ffffffffffffffffffffffffffffffffffffffff1681565b6000604051905090565b600080fd5b600080fd5b600080fd5b600080fd5b6000601f19601f8301169050919050565b7f4e487b7100000000000000000000000000000000000000000000000000000000600052604160045260246000fd5b610abe82610a75565b810181811067ffffffffffffffff82111715610add57610adc610a86565b5b80604052505050565b6000610af0610a57565b9050610afc8282610ab5565b919050565b600067ffffffffffffffff821115610b1c57610b1b610a86565b5b610b2582610a75565b9050602081019050919050565b82818337600083830152505050565b6000610b54610b4f84610b01565b610ae6565b905082815260208101848484011115610b7057610b6f610a70565b5b610b7b848285610b32565b509392505050565b600082601f830112610b9857610b97610a6b565b5b8135610ba8848260208601610b41565b91505092915050565b600060208284031215610bc757610bc6610a61565b5b600082013567ffffffffffffffff811115610be557610be4610a66565b5b610bf184828501610b83565b91505092915050565b600081519050919050565b600082825260208201905092915050565b60005b83811015610c34578082015181840152602081019050610c19565b60008484015250505050565b6000610c4b82610bfa565b610c558185610c05565b9350610c65818560208601610c16565b610c6e81610a75565b840191505092915050565b60006020820190508181036000830152610c938184610c40565b905092915050565b6000819050919050565b610cae81610c9b565b8114610cb957600080fd5b50565b600081359050610ccb81610ca5565b92915050565b600060208284031215610ce757610ce6610a61565b5b6000610cf584828501610cbc565b91505092915050565b600073ffffffffffffffffffffffffffffffffffffffff82169050919050565b6000610d2982610cfe565b9050919050565b610d3981610d1e565b8114610d4457600080fd5b50565b600081359050610d5681610d30565b92915050565b600060208284031215610d7257610d71610a61565b5b6000610d8084828501610d47565b91505092915050565b610d9281610c9b565b82525050565b6000602082019050610dad6000830184610d89565b92915050565b60008060408385031215610dca57610dc9610a61565b5b600083013567ffffffffffffffff811115610de857610de7610a66565b5b610df485828601610b83565b925050602083013567ffffffffffffffff811115610e1557610e14610a66565b5b610e2185828601610b83565b9150509250929050565b60008115159050919050565b610e4081610e2b565b82525050565b6000602082019050610e5b6000830184610e37565b92915050565b610e6a81610d1e565b82525050565b6000602082019050610e856000830184610e61565b92915050565b600081905092915050565b6000610ea182610bfa565b610eab8185610e8b565b9350610ebb818560208601610c16565b80840191505092915050565b6000610ed38284610e96565b915081905092915050565b7f4e487b7100000000000000000000000000000000000000000000000000000000600052602260045260246000fd5b60006002820490506001821680610f2557607f821691505b602082108103610f3857610f37610ede565b5b50919050565b7f496e646578206f7574206f6620626f756e647300000000000000000000000000600082015250565b6000610f74601383610c05565b9150610f7f82610f3e565b602082019050919050565b60006020820190508181036000830152610fa381610f67565b9050919050565b7f4e487b7100000000000000000000000000000000000000000000000000000000600052603260045260246000fd5b7f4f6e6c792061646d696e2063616e20706572666f726d2074686973206163746960008201527f6f6e000000000000000000000000000000000000000000000000000000000000602082015250565b6000611035602283610c05565b915061104082610fd9565b604082019050919050565b6000602082019050818103600083015261106481611028565b9050919050565b7f4e65772061646d696e2063616e6e6f7420626520746865207a65726f2061646460008201527f7265737300000000000000000000000000000000000000000000000000000000602082015250565b60006110c7602483610c05565b91506110d28261106b565b604082019050919050565b600060208201905081810360008301526110f6816110ba565b9050919050565b7f4e6174696f6e616c2049442063616e6e6f7420626520656d7074790000000000600082015250565b6000611133601b83610c05565b915061113e826110fd565b602082019050919050565b6000602082019050818103600083015261116281611126565b9050919050565b7f4449442063616e6e6f7420626520656d70747900000000000000000000000000600082015250565b600061119f601383610c05565b91506111aa82611169565b602082019050919050565b600060208201905081810360008301526111ce81611192565b9050919050565b60008190508160005260206000209050919050565b60006020601f8301049050919050565b600082821b905092915050565b6000600883026112377fffffffffffffffffffffffffffffffffffffffffffffffffffffffffffffffff826111fa565b61124186836111fa565b95508019841693508086168417925050509392505050565b6000819050919050565b600061127e61127961127484610c9b565b611259565b610c9b565b9050919050565b6000819050919050565b61129883611263565b6112ac6112a482611285565b848454611207565b825550505050565b600090565b6112c16112b4565b6112cc81848461128f565b505050565b5b818110156112f0576112e56000826112b9565b6001810190506112d2565b5050565b601f82111561133557611306816111d5565b61130f846111ea565b8101602085101561131e578190505b61133261132a856111ea565b8301826112d1565b50505b505050565b600082821c905092915050565b60006113586000198460080261133a565b1980831691505092915050565b60006113718383611347565b9150826002028217905092915050565b61138a82610bfa565b67ffffffffffffffff8111156113a3576113a2610a86565b5b6113ad8254610f0d565b6113b88282856112f4565b600060209050601f8311600181146113eb57600084156113d9578287015190505b6113e38582611365565b86555061144b565b601f1984166113f9866111d5565b60005b82811015611421578489015182556001820191506020850194506020810190506113fc565b8683101561143e578489015161143a601f891682611347565b8355505b6001600288020188555050505b505050505050565b6000606082019050818103600083015261146d8186610c40565b905081810360208301526114818185610c40565b905081810360408301526114958184610c40565b9050949350505050565b600060408201905081810360008301526114b98185610c40565b905081810360208301526114cd8184610c40565b9050939250505056fea264697066735822122076c0920b2a5892115185f57d947bf3f1559db03683af40e6d0c2d58ef9fcaf1464736f6c634300081c0033",
  "linkReferences": {},
  "deployedLinkReferences": {}
}