{
  "_format": "hh-sol-artifact-1",
  "contractName": "BallotValidation",
  "sourceName": "contracts/BallotValidation.sol",
  "abi": [
    {
      "inputs": [],
      "stateMutability": "nonpayable",
      "type": "constructor"
    },
    {
      "anonymous": false,
      "inputs": [
        {
          "indexed": false,
          "internalType": "string",
          "name": "resultId",
          "type": "string"
        },
        {
          "indexed": false,
          "internalType": "uint256",
          "name": "validationCount",
          "type": "uint256"
        }
      ],
      "name": "ResultFinalized",
      "type": "event"
    },
    {
      "anonymous": false,
      "inputs": [
        {
          "indexed": false,
          "internalType": "string",
          "name": "resultId",
          "type": "string"
        },
        {
          "indexed": false,
          "internalType": "string",
          "name": "candidateId",
          "type": "string"
        },
        {
          "indexed": false,
          "internalType": "string",
          "name": "pollingStation",
          "type": "string"
        },
        {
          "indexed": false,
          "internalType": "uint256",
          "name": "votes",
          "type": "uint256"
        }
      ],
      "name": "ResultSubmitted",
      "type": "event"
    },
    {
      "anonymous": false,
      "inputs": [
        {
          "indexed": false,
          "internalType": "string",
          "name": "resultId",
          "type": "string"
        },
        {
          "indexed": false,
          "internalType": "address",
          "name": "validator",
          "type": "address"
        }
      ],
      "name": "ResultValidatedByDPO",
      "type": "event"
    },
    {
      "anonymous": false,
      "inputs": [
        {
          "indexed": false,
          "internalType": "string",
          "name": "resultId",
          "type": "string"
        },
        {
          "indexed": false,
          "internalType": "address",
          "name": "validator",
          "type": "address"
        }
      ],
      "name": "ResultValidatedByPO",
      "type": "event"
    },
    {
      "anonymous": false,
      "inputs": [
        {
          "indexed": false,
          "internalType": "string",
          "name": "resultId",
          "type": "string"
        },
        {
          "indexed": false,
          "internalType": "address",
          "name": "validator",
          "type": "address"
        },
        {
          "indexed": false,
          "internalType": "string",
          "name": "politicalParty",
          "type": "string"
        }
      ],
      "name": "ResultValidatedByPartyAgent",
      "type": "event"
    },
    {
      "inputs": [],
      "name": "admin",
      "outputs": [
        {
          "internalType": "address",
          "name": "",
          "type": "address"
        }
      ],
      "stateMutability": "view",
      "type": "function"
    },
    {
      "inputs": [
        {
          "internalType": "address",
          "name": "officer",
          "type": "address"
        }
      ],
      "name": "assignDeputyPresidingOfficer",
      "outputs": [],
      "stateMutability": "nonpayable",
      "type": "function"
    },
    {
      "inputs": [
        {
          "internalType": "address",
          "name": "agent",
          "type": "address"
        },
        {
          "internalType": "string",
          "name": "politicalParty",
          "type": "string"
        }
      ],
      "name": "assignPartyAgent",
      "outputs": [],
      "stateMutability": "nonpayable",
      "type": "function"
    },
    {
      "inputs": [
        {
          "internalType": "address",
          "name": "officer",
          "type": "address"
        }
      ],
      "name": "assignPresidingOfficer",
      "outputs": [],
      "stateMutability": "nonpayable",
      "type": "function"
    },
    {
      "inputs": [
        {
          "internalType": "address",
          "name": "",
          "type": "address"
        }
      ],
      "name": "deputyPresidingOfficers",
      "outputs": [
        {
          "internalType": "bool",
          "name": "",
          "type": "bool"
        }
      ],
      "stateMutability": "view",
      "type": "function"
    },
    {
      "inputs": [
        {
          "internalType": "string",
          "name": "",
          "type": "string"
        }
      ],
      "name": "electionResults",
      "outputs": [
        {
          "internalType": "string",
          "name": "candidateId",
          "type": "string"
        },
        {
          "internalType": "string",
          "name": "pollingStation",
          "type": "string"
        },
        {
          "internalType": "uint256",
          "name": "votes",
          "type": "uint256"
        },
        {
          "internalType": "bool",
          "name": "validatedByPO",
          "type": "bool"
        },
        {
          "internalType": "bool",
          "name": "validatedByDPO",
          "type": "bool"
        },
        {
          "internalType": "uint256",
          "name": "timestamp",
          "type": "uint256"
        },
        {
          "internalType": "bool",
          "name": "finalized",
          "type": "bool"
        }
      ],
      "stateMutability": "view",
      "type": "function"
    },
    {
      "inputs": [
        {
          "internalType": "string",
          "name": "resultId",
          "type": "string"
        }
      ],
      "name": "getResult",
      "outputs": [
        {
          "internalType": "string",
          "name": "candidateId",
          "type": "string"
        },
        {
          "internalType": "string",
          "name": "pollingStation",
          "type": "string"
        },
        {
          "internalType": "uint256",
          "name": "votes",
          "type": "uint256"
        },
        {
          "internalType": "bool",
          "name": "validatedByPO",
          "type": "bool"
        },
        {
          "internalType": "bool",
          "name": "validatedByDPO",
          "type": "bool"
        },
        {
          "internalType": "uint256",
          "name": "partyAgentCount",
          "type": "uint256"
        },
        {
          "internalType": "bool",
          "name": "isFinalized",
          "type": "bool"
        }
      ],
      "stateMutability": "view",
      "type": "function"
    },
    {
      "inputs": [
        {
          "internalType": "uint256",
          "name": "index",
          "type": "uint256"
        }
      ],
      "name": "getResultIdByIndex",
      "outputs": [
        {
          "internalType": "string",
          "name": "",
          "type": "string"
        }
      ],
      "stateMutability": "view",
      "type": "function"
    },
    {
      "inputs": [],
      "name": "getTotalResults",
      "outputs": [
        {
          "internalType": "uint256",
          "name": "",
          "type": "uint256"
        }
      ],
      "stateMutability": "view",
      "type": "function"
    },
    {
      "inputs": [
        {
          "internalType": "address",
          "name": "",
          "type": "address"
        }
      ],
      "name": "partyAgents",
      "outputs": [
        {
          "internalType": "string",
          "name": "",
          "type": "string"
        }
      ],
      "stateMutability": "view",
      "type": "function"
    },
    {
      "inputs": [
        {
          "internalType": "address",
          "name": "",
          "type": "address"
        }
      ],
      "name": "presidingOfficers",
      "outputs": [
        {
          "internalType": "bool",
          "name": "",
          "type": "bool"
        }
      ],
      "stateMutability": "view",
      "type": "function"
    },
    {
      "inputs": [
        {
          "internalType": "address",
          "name": "officer",
          "type": "address"
        }
      ],
      "name": "removeDeputyPresidingOfficer",
      "outputs": [],
      "stateMutability": "nonpayable",
      "type": "function"
    },
    {
      "inputs": [
        {
          "internalType": "address",
          "name": "agent",
          "type": "address"
        }
      ],
      "name": "removePartyAgent",
      "outputs": [],
      "stateMutability": "nonpayable",
      "type": "function"
    },
    {
      "inputs": [
        {
          "internalType": "address",
          "name": "officer",
          "type": "address"
        }
      ],
      "name": "removePresidingOfficer",
      "outputs": [],
      "stateMutability": "nonpayable",
      "type": "function"
    },
    {
      "inputs": [
        {
          "internalType": "uint256",
          "name": "",
          "type": "uint256"
        }
      ],
      "name": "resultIds",
      "outputs": [
        {
          "internalType": "string",
          "name": "",
          "type": "string"
        }
      ],
      "stateMutability": "view",
      "type": "function"
    },
    {
      "inputs": [
        {
          "internalType": "string",
          "name": "resultId",
          "type": "string"
        },
        {
          "internalType": "string",
          "name": "candidateId",
          "type": "string"
        },
        {
          "internalType": "string",
          "name": "pollingStation",
          "type": "string"
        },
        {
          "internalType": "uint256",
          "name": "votes",
          "type": "uint256"
        }
      ],
      "name": "submitResult",
      "outputs": [],
      "stateMutability": "nonpayable",
      "type": "function"
    },
    {
      "inputs": [
        {
          "internalType": "address",
          "name": "newAdmin",
          "type": "address"
        }
      ],
      "name": "transferAdmin",
      "outputs": [],
      "stateMutability": "nonpayable",
      "type": "function"
    },
    {
      "inputs": [
        {
          "internalType": "string",
          "name": "resultId",
          "type": "string"
        }
      ],
      "name": "validateResultAsDPO",
      "outputs": [],
      "stateMutability": "nonpayable",
      "type": "function"
    },
    {
      "inputs": [
        {
          "internalType": "string",
          "name": "resultId",
          "type": "string"
        }
      ],
      "name": "validateResultAsPO",
      "outputs": [],
      "stateMutability": "nonpayable",
      "type": "function"
    },
    {
      "inputs": [
        {
          "internalType": "string",
          "name": "resultId",
          "type": "string"
        }
      ],
      "name": "validateResultAsPartyAgent",
      "outputs": [],
      "stateMutability": "nonpayable",
      "type": "function"
    }
  ],
  "bytecode": "0x6080604052348015600f57600080fd5b50336000806101000a81548173ffffffffffffffffffffffffffffffffffffffff021916908373ffffffffffffffffffffffffffffffffffffffff16021790555061310d8061005f6000396000f3fe608060405234801561001057600080fd5b506004361061012c5760003560e01c80639351e5bf116100ad578063a58980ba11610071578063a58980ba14610345578063be9ef08f14610361578063c0a0991f14610391578063f851a440146103af578063fc9a4c0c146103cd5761012c565b80639351e5bf146102a55780639e7169f3146102c15780639f960ab1146102dd578063a12e24bb146102f9578063a1a067da146103295761012c565b80634b4bd9f7116100f45780634b4bd9f7146101ff57806354ef29c01461021b57806375829def1461023757806381929bac1461025357806392733519146102895761012c565b806307c1e935146101315780630b3cc45f146101615780631fa3eb871461017d57806344527845146101ad578063498cc70d146101c9575b600080fd5b61014b60048036038101906101469190611f2f565b6103fd565b6040516101589190611fec565b60405180910390f35b61017b60048036038101906101769190612143565b61049d565b005b610197600480360381019061019291906121c2565b61067a565b6040516101a49190611fec565b60405180910390f35b6101c760048036038101906101c29190611f2f565b610771565b005b6101e360048036038101906101de9190612143565b61084d565b6040516101f69796959493929190612219565b60405180910390f35b61021960048036038101906102149190612143565b610a3d565b005b61023560048036038101906102309190611f2f565b610d24565b005b610251600480360381019061024c9190611f2f565b610e0d565b005b61026d60048036038101906102689190612143565b610f4d565b6040516102809796959493929190612219565b60405180910390f35b6102a3600480360381019061029e9190612143565b6110dc565b005b6102bf60048036038101906102ba9190612296565b6112b9565b005b6102db60048036038101906102d691906122f2565b6113dc565b005b6102f760048036038101906102f29190611f2f565b61190f565b005b610313600480360381019061030e91906121c2565b6119f8565b6040516103209190611fec565b60405180910390f35b610343600480360381019061033e9190611f2f565b611aa4565b005b61035f600480360381019061035a9190611f2f565b611b8d565b005b61037b60048036038101906103769190611f2f565b611c76565b60405161038891906123ad565b60405180910390f35b610399611c96565b6040516103a691906123c8565b60405180910390f35b6103b7611ca3565b6040516103c491906123f2565b60405180910390f35b6103e760048036038101906103e29190611f2f565b611cc7565b6040516103f491906123ad565b60405180910390f35b6005602052806000526040600020600091509050805461041c9061243c565b80601f01602080910402602001604051908101604052809291908181526020018280546104489061243c565b80156104955780601f1061046a57610100808354040283529160200191610495565b820191906000526020600020905b81548152906001019060200180831161047857829003601f168201915b505050505081565b600460003373ffffffffffffffffffffffffffffffffffffffff1673ffffffffffffffffffffffffffffffffffffffff16815260200190815260200160002060009054906101000a900460ff16610529576040517f08c379a0000000000000000000000000000000000000000000000000000000008152600401610520906124df565b60405180910390fd5b600060018260405161053b919061253b565b9081526020016040518091039020600501541161058d576040517f08c379a00000000000000000000000000000000000000000000000000000000081526004016105849061259e565b60405180910390fd5b60018160405161059d919061253b565b908152602001604051809103902060030160019054906101000a900460ff16156105fc576040517f08c379a00000000000000000000000000000000000000000000000000000000081526004016105f390612630565b60405180910390fd5b6001808260405161060d919061253b565b908152602001604051809103902060030160016101000a81548160ff0219169083151502179055507fc75e36dc3b50fdf93caf8e7ed45a67f5a8644532d7c151290033ca52c1d4344a8133604051610666929190612650565b60405180910390a161067781611ce7565b50565b606060028054905082106106c3576040517f08c379a00000000000000000000000000000000000000000000000000000000081526004016106ba906126cc565b60405180910390fd5b600282815481106106d7576106d66126ec565b5b9060005260206000200180546106ec9061243c565b80601f01602080910402602001604051908101604052809291908181526020018280546107189061243c565b80156107655780601f1061073a57610100808354040283529160200191610765565b820191906000526020600020905b81548152906001019060200180831161074857829003601f168201915b50505050509050919050565b60008054906101000a900473ffffffffffffffffffffffffffffffffffffffff1673ffffffffffffffffffffffffffffffffffffffff163373ffffffffffffffffffffffffffffffffffffffff16146107ff576040517f08c379a00000000000000000000000000000000000000000000000000000000081526004016107f69061278d565b60405180910390fd5b600560008273ffffffffffffffffffffffffffffffffffffffff1673ffffffffffffffffffffffffffffffffffffffff168152602001908152602001600020600061084a9190611dd6565b50565b606080600080600080600080600189604051610869919061253b565b9081526020016040518091039020905060008160050154116108c0576040517f08c379a00000000000000000000000000000000000000000000000000000000081526004016108b79061259e565b60405180910390fd5b806000018160010182600201548360030160009054906101000a900460ff168460030160019054906101000a900460ff1685600401805490508660060160009054906101000a900460ff168680546109179061243c565b80601f01602080910402602001604051908101604052809291908181526020018280546109439061243c565b80156109905780601f1061096557610100808354040283529160200191610990565b820191906000526020600020905b81548152906001019060200180831161097357829003601f168201915b505050505096508580546109a39061243c565b80601f01602080910402602001604051908101604052809291908181526020018280546109cf9061243c565b8015610a1c5780601f106109f157610100808354040283529160200191610a1c565b820191906000526020600020905b8154815290600101906020018083116109ff57829003601f168201915b50505050509550975097509750975097509750975050919395979092949650565b6000600560003373ffffffffffffffffffffffffffffffffffffffff1673ffffffffffffffffffffffffffffffffffffffff1681526020019081526020016000208054610a899061243c565b905011610acb576040517f08c379a0000000000000000000000000000000000000000000000000000000008152600401610ac29061281f565b60405180910390fd5b6000600182604051610add919061253b565b90815260200160405180910390206005015411610b2f576040517f08c379a0000000000000000000000000000000000000000000000000000000008152600401610b269061259e565b60405180910390fd5b6000600182604051610b41919061253b565b9081526020016040518091039020600401905060005b8180549050811015610c1b573373ffffffffffffffffffffffffffffffffffffffff16828281548110610b8d57610b8c6126ec565b5b9060005260206000200160009054906101000a900473ffffffffffffffffffffffffffffffffffffffff1673ffffffffffffffffffffffffffffffffffffffff1603610c0e576040517f08c379a0000000000000000000000000000000000000000000000000000000008152600401610c05906128b1565b60405180910390fd5b8080600101915050610b57565b50600182604051610c2c919061253b565b9081526020016040518091039020600401339080600181540180825580915050600190039060005260206000200160009091909190916101000a81548173ffffffffffffffffffffffffffffffffffffffff021916908373ffffffffffffffffffffffffffffffffffffffff1602179055507fc80a6777eaf1b28c8b5259bebb26aa956f7f9b3a87a3a34bb5d8c188a87093298233600560003373ffffffffffffffffffffffffffffffffffffffff1673ffffffffffffffffffffffffffffffffffffffff168152602001908152602001600020604051610d0f9392919061296a565b60405180910390a1610d2082611ce7565b5050565b60008054906101000a900473ffffffffffffffffffffffffffffffffffffffff1673ffffffffffffffffffffffffffffffffffffffff163373ffffffffffffffffffffffffffffffffffffffff1614610db2576040517f08c379a0000000000000000000000000000000000000000000000000000000008152600401610da99061278d565b60405180910390fd5b6001600460008373ffffffffffffffffffffffffffffffffffffffff1673ffffffffffffffffffffffffffffffffffffffff16815260200190815260200160002060006101000a81548160ff02191690831515021790555050565b60008054906101000a900473ffffffffffffffffffffffffffffffffffffffff1673ffffffffffffffffffffffffffffffffffffffff163373ffffffffffffffffffffffffffffffffffffffff1614610e9b576040517f08c379a0000000000000000000000000000000000000000000000000000000008152600401610e929061278d565b60405180910390fd5b600073ffffffffffffffffffffffffffffffffffffffff168173ffffffffffffffffffffffffffffffffffffffff1603610f0a576040517f08c379a0000000000000000000000000000000000000000000000000000000008152600401610f0190612a21565b60405180910390fd5b806000806101000a81548173ffffffffffffffffffffffffffffffffffffffff021916908373ffffffffffffffffffffffffffffffffffffffff16021790555050565b600181805160208101820180518482526020830160208501208183528095505050505050600091509050806000018054610f869061243c565b80601f0160208091040260200160405190810160405280929190818152602001828054610fb29061243c565b8015610fff5780601f10610fd457610100808354040283529160200191610fff565b820191906000526020600020905b815481529060010190602001808311610fe257829003601f168201915b5050505050908060010180546110149061243c565b80601f01602080910402602001604051908101604052809291908181526020018280546110409061243c565b801561108d5780601f106110625761010080835404028352916020019161108d565b820191906000526020600020905b81548152906001019060200180831161107057829003601f168201915b5050505050908060020154908060030160009054906101000a900460ff16908060030160019054906101000a900460ff16908060050154908060060160009054906101000a900460ff16905087565b600360003373ffffffffffffffffffffffffffffffffffffffff1673ffffffffffffffffffffffffffffffffffffffff16815260200190815260200160002060009054906101000a900460ff16611168576040517f08c379a000000000000000000000000000000000000000000000000000000000815260040161115f90612ab3565b60405180910390fd5b600060018260405161117a919061253b565b908152602001604051809103902060050154116111cc576040517f08c379a00000000000000000000000000000000000000000000000000000000081526004016111c39061259e565b60405180910390fd5b6001816040516111dc919061253b565b908152602001604051809103902060030160009054906101000a900460ff161561123b576040517f08c379a000000000000000000000000000000000000000000000000000000000815260040161123290612b1f565b60405180910390fd5b6001808260405161124c919061253b565b908152602001604051809103902060030160006101000a81548160ff0219169083151502179055507f1ffb6ce5aea7e519344184e0189e07b5247e41f684c31d2552b932a256d6bab981336040516112a5929190612650565b60405180910390a16112b681611ce7565b50565b60008054906101000a900473ffffffffffffffffffffffffffffffffffffffff1673ffffffffffffffffffffffffffffffffffffffff163373ffffffffffffffffffffffffffffffffffffffff1614611347576040517f08c379a000000000000000000000000000000000000000000000000000000000815260040161133e9061278d565b60405180910390fd5b600081511161138b576040517f08c379a000000000000000000000000000000000000000000000000000000000815260040161138290612b8b565b60405180910390fd5b80600560008473ffffffffffffffffffffffffffffffffffffffff1673ffffffffffffffffffffffffffffffffffffffff16815260200190815260200160002090816113d79190612d42565b505050565b600360003373ffffffffffffffffffffffffffffffffffffffff1673ffffffffffffffffffffffffffffffffffffffff16815260200190815260200160002060009054906101000a900460ff168061147d5750600460003373ffffffffffffffffffffffffffffffffffffffff1673ffffffffffffffffffffffffffffffffffffffff16815260200190815260200160002060009054906101000a900460ff165b806114d357506000600560003373ffffffffffffffffffffffffffffffffffffffff1673ffffffffffffffffffffffffffffffffffffffff16815260200190815260200160002080546114cf9061243c565b9050115b611512576040517f08c379a000000000000000000000000000000000000000000000000000000000815260040161150990612e86565b60405180910390fd5b6000845111611556576040517f08c379a000000000000000000000000000000000000000000000000000000000815260040161154d90612ef2565b60405180910390fd5b600083511161159a576040517f08c379a000000000000000000000000000000000000000000000000000000000815260040161159190612f5e565b60405180910390fd5b60008251116115de576040517f08c379a00000000000000000000000000000000000000000000000000000000081526004016115d590612fca565b60405180910390fd5b60006001856040516115f0919061253b565b908152602001604051809103902060050154036117e857604051806101000160405280848152602001838152602001828152602001600015158152602001600015158152602001600067ffffffffffffffff81111561165257611651612018565b5b6040519080825280602002602001820160405280156116805781602001602082028036833780820191505090505b508152602001428152602001600015158152506001856040516116a3919061253b565b908152602001604051809103902060008201518160000190816116c69190612d42565b5060208201518160010190816116dc9190612d42565b506040820151816002015560608201518160030160006101000a81548160ff02191690831515021790555060808201518160030160016101000a81548160ff02191690831515021790555060a0820151816004019080519060200190611743929190611e16565b5060c0820151816005015560e08201518160060160006101000a81548160ff0219169083151502179055509050506002849080600181540180825580915050600190039060005260206000200160009091909190915090816117a59190612d42565b507f84387bf05d237f18d6f8922053061138c0c77ec350bc1a1d29d96322f22867a4848484846040516117db9493929190612fea565b60405180910390a16117e9565b5b600360003373ffffffffffffffffffffffffffffffffffffffff1673ffffffffffffffffffffffffffffffffffffffff16815260200190815260200160002060009054906101000a900460ff161561184957611844846110dc565b611909565b600460003373ffffffffffffffffffffffffffffffffffffffff1673ffffffffffffffffffffffffffffffffffffffff16815260200190815260200160002060009054906101000a900460ff16156118a9576118a48461049d565b611908565b6000600560003373ffffffffffffffffffffffffffffffffffffffff1673ffffffffffffffffffffffffffffffffffffffff16815260200190815260200160002080546118f59061243c565b905011156119075761190684610a3d565b5b5b5b50505050565b60008054906101000a900473ffffffffffffffffffffffffffffffffffffffff1673ffffffffffffffffffffffffffffffffffffffff163373ffffffffffffffffffffffffffffffffffffffff161461199d576040517f08c379a00000000000000000000000000000000000000000000000000000000081526004016119949061278d565b60405180910390fd5b6000600460008373ffffffffffffffffffffffffffffffffffffffff1673ffffffffffffffffffffffffffffffffffffffff16815260200190815260200160002060006101000a81548160ff02191690831515021790555050565b60028181548110611a0857600080fd5b906000526020600020016000915090508054611a239061243c565b80601f0160208091040260200160405190810160405280929190818152602001828054611a4f9061243c565b8015611a9c5780601f10611a7157610100808354040283529160200191611a9c565b820191906000526020600020905b815481529060010190602001808311611a7f57829003601f168201915b505050505081565b60008054906101000a900473ffffffffffffffffffffffffffffffffffffffff1673ffffffffffffffffffffffffffffffffffffffff163373ffffffffffffffffffffffffffffffffffffffff1614611b32576040517f08c379a0000000000000000000000000000000000000000000000000000000008152600401611b299061278d565b60405180910390fd5b6001600360008373ffffffffffffffffffffffffffffffffffffffff1673ffffffffffffffffffffffffffffffffffffffff16815260200190815260200160002060006101000a81548160ff02191690831515021790555050565b60008054906101000a900473ffffffffffffffffffffffffffffffffffffffff1673ffffffffffffffffffffffffffffffffffffffff163373ffffffffffffffffffffffffffffffffffffffff1614611c1b576040517f08c379a0000000000000000000000000000000000000000000000000000000008152600401611c129061278d565b60405180910390fd5b6000600360008373ffffffffffffffffffffffffffffffffffffffff1673ffffffffffffffffffffffffffffffffffffffff16815260200190815260200160002060006101000a81548160ff02191690831515021790555050565b60046020528060005260406000206000915054906101000a900460ff1681565b6000600280549050905090565b60008054906101000a900473ffffffffffffffffffffffffffffffffffffffff1681565b60036020528060005260406000206000915054906101000a900460ff1681565b6000600182604051611cf9919061253b565b908152602001604051809103902090508060030160009054906101000a900460ff168015611d3557508060030160019054906101000a900460ff165b8015611d48575060008160040180549050115b8015611d6357508060060160009054906101000a900460ff16155b15611dd25760018160060160006101000a81548160ff0219169083151502179055507fc861a94ba42e12a0c09e2eedbc2f3bea57e012858c6b412c004601b3b6a56bac8282600401805490506002611dbb9190613073565b604051611dc99291906130a7565b60405180910390a15b5050565b508054611de29061243c565b6000825580601f10611df45750611e13565b601f016020900490600052602060002090810190611e129190611ea0565b5b50565b828054828255906000526020600020908101928215611e8f579160200282015b82811115611e8e5782518260006101000a81548173ffffffffffffffffffffffffffffffffffffffff021916908373ffffffffffffffffffffffffffffffffffffffff16021790555091602001919060010190611e36565b5b509050611e9c9190611ea0565b5090565b5b80821115611eb9576000816000905550600101611ea1565b5090565b6000604051905090565b600080fd5b600080fd5b600073ffffffffffffffffffffffffffffffffffffffff82169050919050565b6000611efc82611ed1565b9050919050565b611f0c81611ef1565b8114611f1757600080fd5b50565b600081359050611f2981611f03565b92915050565b600060208284031215611f4557611f44611ec7565b5b6000611f5384828501611f1a565b91505092915050565b600081519050919050565b600082825260208201905092915050565b60005b83811015611f96578082015181840152602081019050611f7b565b60008484015250505050565b6000601f19601f8301169050919050565b6000611fbe82611f5c565b611fc88185611f67565b9350611fd8818560208601611f78565b611fe181611fa2565b840191505092915050565b600060208201905081810360008301526120068184611fb3565b905092915050565b600080fd5b600080fd5b7f4e487b7100000000000000000000000000000000000000000000000000000000600052604160045260246000fd5b61205082611fa2565b810181811067ffffffffffffffff8211171561206f5761206e612018565b5b80604052505050565b6000612082611ebd565b905061208e8282612047565b919050565b600067ffffffffffffffff8211156120ae576120ad612018565b5b6120b782611fa2565b9050602081019050919050565b82818337600083830152505050565b60006120e66120e184612093565b612078565b90508281526020810184848401111561210257612101612013565b5b61210d8482856120c4565b509392505050565b600082601f83011261212a5761212961200e565b5b813561213a8482602086016120d3565b91505092915050565b60006020828403121561215957612158611ec7565b5b600082013567ffffffffffffffff81111561217757612176611ecc565b5b61218384828501612115565b91505092915050565b6000819050919050565b61219f8161218c565b81146121aa57600080fd5b50565b6000813590506121bc81612196565b92915050565b6000602082840312156121d8576121d7611ec7565b5b60006121e6848285016121ad565b91505092915050565b6121f88161218c565b82525050565b60008115159050919050565b612213816121fe565b82525050565b600060e0820190508181036000830152612233818a611fb3565b905081810360208301526122478189611fb3565b905061225660408301886121ef565b612263606083018761220a565b612270608083018661220a565b61227d60a08301856121ef565b61228a60c083018461220a565b98975050505050505050565b600080604083850312156122ad576122ac611ec7565b5b60006122bb85828601611f1a565b925050602083013567ffffffffffffffff8111156122dc576122db611ecc565b5b6122e885828601612115565b9150509250929050565b6000806000806080858703121561230c5761230b611ec7565b5b600085013567ffffffffffffffff81111561232a57612329611ecc565b5b61233687828801612115565b945050602085013567ffffffffffffffff81111561235757612356611ecc565b5b61236387828801612115565b935050604085013567ffffffffffffffff81111561238457612383611ecc565b5b61239087828801612115565b92505060606123a1878288016121ad565b91505092959194509250565b60006020820190506123c2600083018461220a565b92915050565b60006020820190506123dd60008301846121ef565b92915050565b6123ec81611ef1565b82525050565b600060208201905061240760008301846123e3565b92915050565b7f4e487b7100000000000000000000000000000000000000000000000000000000600052602260045260246000fd5b6000600282049050600182168061245457607f821691505b6020821081036124675761246661240d565b5b50919050565b7f4f6e6c792044657075747920507265736964696e67204f66666963657273206360008201527f616e20706572666f726d207468697320616374696f6e00000000000000000000602082015250565b60006124c9603683611f67565b91506124d48261246d565b604082019050919050565b600060208201905081810360008301526124f8816124bc565b9050919050565b600081905092915050565b600061251582611f5c565b61251f81856124ff565b935061252f818560208601611f78565b80840191505092915050565b6000612547828461250a565b915081905092915050565b7f526573756c7420646f6573206e6f742065786973740000000000000000000000600082015250565b6000612588601583611f67565b915061259382612552565b602082019050919050565b600060208201905081810360008301526125b78161257b565b9050919050565b7f526573756c7420616c72656164792076616c696461746564206279206120445060008201527f4f00000000000000000000000000000000000000000000000000000000000000602082015250565b600061261a602183611f67565b9150612625826125be565b604082019050919050565b600060208201905081810360008301526126498161260d565b9050919050565b6000604082019050818103600083015261266a8185611fb3565b905061267960208301846123e3565b9392505050565b7f496e646578206f7574206f6620626f756e647300000000000000000000000000600082015250565b60006126b6601383611f67565b91506126c182612680565b602082019050919050565b600060208201905081810360008301526126e5816126a9565b9050919050565b7f4e487b7100000000000000000000000000000000000000000000000000000000600052603260045260246000fd5b7f4f6e6c792061646d696e2063616e20706572666f726d2074686973206163746960008201527f6f6e000000000000000000000000000000000000000000000000000000000000602082015250565b6000612777602283611f67565b91506127828261271b565b604082019050919050565b600060208201905081810360008301526127a68161276a565b9050919050565b7f4f6e6c79205061727479204167656e74732063616e20706572666f726d20746860008201527f697320616374696f6e0000000000000000000000000000000000000000000000602082015250565b6000612809602983611f67565b9150612814826127ad565b604082019050919050565b60006020820190508181036000830152612838816127fc565b9050919050565b7f5061727479206167656e742068617320616c72656164792076616c696461746560008201527f64207468697320726573756c7400000000000000000000000000000000000000602082015250565b600061289b602d83611f67565b91506128a68261283f565b604082019050919050565b600060208201905081810360008301526128ca8161288e565b9050919050565b60008190508160005260206000209050919050565b600081546128f38161243c565b6128fd8186611f67565b94506001821660008114612918576001811461292e57612961565b60ff198316865281151560200286019350612961565b612937856128d1565b60005b838110156129595781548189015260018201915060208101905061293a565b808801955050505b50505092915050565b600060608201905081810360008301526129848186611fb3565b905061299360208301856123e3565b81810360408301526129a581846128e6565b9050949350505050565b7f4e65772061646d696e2063616e6e6f7420626520746865207a65726f2061646460008201527f7265737300000000000000000000000000000000000000000000000000000000602082015250565b6000612a0b602483611f67565b9150612a16826129af565b604082019050919050565b60006020820190508181036000830152612a3a816129fe565b9050919050565b7f4f6e6c7920507265736964696e67204f666669636572732063616e207065726660008201527f6f726d207468697320616374696f6e0000000000000000000000000000000000602082015250565b6000612a9d602f83611f67565b9150612aa882612a41565b604082019050919050565b60006020820190508181036000830152612acc81612a90565b9050919050565b7f526573756c7420616c72656164792076616c696461746564206279206120504f600082015250565b6000612b09602083611f67565b9150612b1482612ad3565b602082019050919050565b60006020820190508181036000830152612b3881612afc565b9050919050565b7f506f6c69746963616c2070617274792063616e6e6f7420626520656d70747900600082015250565b6000612b75601f83611f67565b9150612b8082612b3f565b602082019050919050565b60006020820190508181036000830152612ba481612b68565b9050919050565b60006020601f8301049050919050565b600082821b905092915050565b600060088302612bf87fffffffffffffffffffffffffffffffffffffffffffffffffffffffffffffffff82612bbb565b612c028683612bbb565b95508019841693508086168417925050509392505050565b6000819050919050565b6000612c3f612c3a612c358461218c565b612c1a565b61218c565b9050919050565b6000819050919050565b612c5983612c24565b612c6d612c6582612c46565b848454612bc8565b825550505050565b600090565b612c82612c75565b612c8d818484612c50565b505050565b5b81811015612cb157612ca6600082612c7a565b600181019050612c93565b5050565b601f821115612cf657612cc7816128d1565b612cd084612bab565b81016020851015612cdf578190505b612cf3612ceb85612bab565b830182612c92565b50505b505050565b600082821c905092915050565b6000612d1960001984600802612cfb565b1980831691505092915050565b6000612d328383612d08565b9150826002028217905092915050565b612d4b82611f5c565b67ffffffffffffffff811115612d6457612d63612018565b5b612d6e825461243c565b612d79828285612cb5565b600060209050601f831160018114612dac5760008415612d9a578287015190505b612da48582612d26565b865550612e0c565b601f198416612dba866128d1565b60005b82811015612de257848901518255600182019150602085019450602081019050612dbd565b86831015612dff5784890151612dfb601f891682612d08565b8355505b6001600288020188555050505b505050505050565b7f556e617574686f72697a65643a204f6e6c7920656c656374696f6e206f66666960008201527f6369616c732063616e207375626d697420726573756c74730000000000000000602082015250565b6000612e70603883611f67565b9150612e7b82612e14565b604082019050919050565b60006020820190508181036000830152612e9f81612e63565b9050919050565b7f526573756c742049442063616e6e6f7420626520656d70747900000000000000600082015250565b6000612edc601983611f67565b9150612ee782612ea6565b602082019050919050565b60006020820190508181036000830152612f0b81612ecf565b9050919050565b7f43616e6469646174652049442063616e6e6f7420626520656d70747900000000600082015250565b6000612f48601c83611f67565b9150612f5382612f12565b602082019050919050565b60006020820190508181036000830152612f7781612f3b565b9050919050565b7f506f6c6c696e672073746174696f6e2063616e6e6f7420626520656d70747900600082015250565b6000612fb4601f83611f67565b9150612fbf82612f7e565b602082019050919050565b60006020820190508181036000830152612fe381612fa7565b9050919050565b600060808201905081810360008301526130048187611fb3565b905081810360208301526130188186611fb3565b9050818103604083015261302c8185611fb3565b905061303b60608301846121ef565b95945050505050565b7f4e487b7100000000000000000000000000000000000000000000000000000000600052601160045260246000fd5b600061307e8261218c565b91506130898361218c565b92508282019050808211156130a1576130a0613044565b5b92915050565b600060408201905081810360008301526130c18185611fb3565b90506130d060208301846121ef565b939250505056fea264697066735822122036b2bae7811ca80e37f6dbe556a86f1d8154c431b973888c2746f16496a4bde364736f6c634300081c0033",
  "linkReferences": {},
  "deployedLinkReferences": {}
}