{
  "_format": "hh-sol-artifact-1",
  "contractName": "VoterDIDLite",
  "sourceName": "contracts/VoterDIDLite.sol",
  "abi": [
    {
      "inputs": [],
      "stateMutability": "nonpayable",
      "type": "constructor"
    },
    {
      "anonymous": false,
      "inputs": [
        {
          "indexed": false,
          "internalType": "string",
          "name": "nationalId",
          "type": "string"
        }
      ],
      "name": "DIDRegistered",
      "type": "event"
    },
    {
      "anonymous": false,
      "inputs": [
        {
          "indexed": false,
          "internalType": "string",
          "name": "nationalId",
          "type": "string"
        }
      ],
      "name": "DIDUpdated",
      "type": "event"
    },
    {
      "inputs": [],
      "name": "admin",
      "outputs": [
        {
          "internalType": "address",
          "name": "",
          "type": "address"
        }
      ],
      "stateMutability": "view",
      "type": "function"
    },
    {
      "inputs": [
        {
          "internalType": "string",
          "name": "nationalId",
          "type": "string"
        }
      ],
      "name": "getDID",
      "outputs": [
        {
          "internalType": "string",
          "name": "",
          "type": "string"
        }
      ],
      "stateMutability": "view",
      "type": "function"
    },
    {
      "inputs": [
        {
          "internalType": "string",
          "name": "nationalId",
          "type": "string"
        }
      ],
      "name": "isRegistered",
      "outputs": [
        {
          "internalType": "bool",
          "name": "",
          "type": "bool"
        }
      ],
      "stateMutability": "view",
      "type": "function"
    },
    {
      "inputs": [
        {
          "internalType": "string",
          "name": "nationalId",
          "type": "string"
        },
        {
          "internalType": "string",
          "name": "did",
          "type": "string"
        }
      ],
      "name": "registerDID",
      "outputs": [],
      "stateMutability": "nonpayable",
      "type": "function"
    },
    {
      "inputs": [
        {
          "internalType": "string",
          "name": "did",
          "type": "string"
        },
        {
          "internalType": "string",
          "name": "nationalId",
          "type": "string"
        }
      ],
      "name": "registerVoter",
      "outputs": [],
      "stateMutability": "nonpayable",
      "type": "function"
    },
    {
      "inputs": [
        {
          "internalType": "address",
          "name": "newAdmin",
          "type": "address"
        }
      ],
      "name": "transferAdmin",
      "outputs": [],
      "stateMutability": "nonpayable",
      "type": "function"
    }
  ],
  "bytecode": "0x6080604052348015600f57600080fd5b50336000806101000a81548173ffffffffffffffffffffffffffffffffffffffff021916908373ffffffffffffffffffffffffffffffffffffffff160217905550610f0d8061005f6000396000f3fe608060405234801561001057600080fd5b50600436106100625760003560e01c806375829def146100675780637e5c39e9146100835780638a4c88471461009f578063c822d7f0146100bb578063e0783898146100eb578063f851a4401461011b575b600080fd5b610081600480360381019061007c91906106b7565b610139565b005b61009d6004803603810190610098919061082a565b610279565b005b6100b960048036038101906100b4919061082a565b6104a0565b005b6100d560048036038101906100d091906108a2565b61053c565b6040516100e29190610906565b60405180910390f35b610105600480360381019061010091906108a2565b610571565b60405161011291906109a0565b60405180910390f35b610123610621565b60405161013091906109d1565b60405180910390f35b60008054906101000a900473ffffffffffffffffffffffffffffffffffffffff1673ffffffffffffffffffffffffffffffffffffffff163373ffffffffffffffffffffffffffffffffffffffff16146101c7576040517f08c379a00000000000000000000000000000000000000000000000000000000081526004016101be90610a38565b60405180910390fd5b600073ffffffffffffffffffffffffffffffffffffffff168173ffffffffffffffffffffffffffffffffffffffff1603610236576040517f08c379a000000000000000000000000000000000000000000000000000000000815260040161022d90610aa4565b60405180910390fd5b806000806101000a81548173ffffffffffffffffffffffffffffffffffffffff021916908373ffffffffffffffffffffffffffffffffffffffff16021790555050565b60008054906101000a900473ffffffffffffffffffffffffffffffffffffffff1673ffffffffffffffffffffffffffffffffffffffff163373ffffffffffffffffffffffffffffffffffffffff1614610307576040517f08c379a00000000000000000000000000000000000000000000000000000000081526004016102fe90610a38565b60405180910390fd5b600082511161034b576040517f08c379a000000000000000000000000000000000000000000000000000000000815260040161034290610b10565b60405180910390fd5b600081511161038f576040517f08c379a000000000000000000000000000000000000000000000000000000000815260040161038690610b7c565b60405180910390fd5b60006002836040516103a19190610bd8565b908152602001604051809103902060009054906101000a900460ff169050816001846040516103d09190610bd8565b908152602001604051809103902090816103ea9190610e05565b50806104635760016002846040516104029190610bd8565b908152602001604051809103902060006101000a81548160ff0219169083151502179055507ff33dad7638394be78e889d9c8fef4ae0b61e1f55e344896dd80588ccecf58f558360405161045691906109a0565b60405180910390a161049b565b7f7e7500a71b0209575a3b4858a2a662e94b0cad314ecb249f3526e9b2f86a01468360405161049291906109a0565b60405180910390a15b505050565b60008054906101000a900473ffffffffffffffffffffffffffffffffffffffff1673ffffffffffffffffffffffffffffffffffffffff163373ffffffffffffffffffffffffffffffffffffffff161461052e576040517f08c379a000000000000000000000000000000000000000000000000000000000815260040161052590610a38565b60405180910390fd5b6105388183610279565b5050565b600060028260405161054e9190610bd8565b908152602001604051809103902060009054906101000a900460ff169050919050565b60606001826040516105839190610bd8565b9081526020016040518091039020805461059c90610c1e565b80601f01602080910402602001604051908101604052809291908181526020018280546105c890610c1e565b80156106155780601f106105ea57610100808354040283529160200191610615565b820191906000526020600020905b8154815290600101906020018083116105f857829003601f168201915b50505050509050919050565b60008054906101000a900473ffffffffffffffffffffffffffffffffffffffff1681565b6000604051905090565b600080fd5b600080fd5b600073ffffffffffffffffffffffffffffffffffffffff82169050919050565b600061068482610659565b9050919050565b61069481610679565b811461069f57600080fd5b50565b6000813590506106b18161068b565b92915050565b6000602082840312156106cd576106cc61064f565b5b60006106db848285016106a2565b91505092915050565b600080fd5b600080fd5b6000601f19601f8301169050919050565b7f4e487b7100000000000000000000000000000000000000000000000000000000600052604160045260246000fd5b610737826106ee565b810181811067ffffffffffffffff82111715610756576107556106ff565b5b80604052505050565b6000610769610645565b9050610775828261072e565b919050565b600067ffffffffffffffff821115610795576107946106ff565b5b61079e826106ee565b9050602081019050919050565b82818337600083830152505050565b60006107cd6107c88461077a565b61075f565b9050828152602081018484840111156107e9576107e86106e9565b5b6107f48482856107ab565b509392505050565b600082601f830112610811576108106106e4565b5b81356108218482602086016107ba565b91505092915050565b600080604083850312156108415761084061064f565b5b600083013567ffffffffffffffff81111561085f5761085e610654565b5b61086b858286016107fc565b925050602083013567ffffffffffffffff81111561088c5761088b610654565b5b610898858286016107fc565b9150509250929050565b6000602082840312156108b8576108b761064f565b5b600082013567ffffffffffffffff8111156108d6576108d5610654565b5b6108e2848285016107fc565b91505092915050565b60008115159050919050565b610900816108eb565b82525050565b600060208201905061091b60008301846108f7565b92915050565b600081519050919050565b600082825260208201905092915050565b60005b8381101561095b578082015181840152602081019050610940565b60008484015250505050565b600061097282610921565b61097c818561092c565b935061098c81856020860161093d565b610995816106ee565b840191505092915050565b600060208201905081810360008301526109ba8184610967565b905092915050565b6109cb81610679565b82525050565b60006020820190506109e660008301846109c2565b92915050565b7f4e6f742061646d696e0000000000000000000000000000000000000000000000600082015250565b6000610a2260098361092c565b9150610a2d826109ec565b602082019050919050565b60006020820190508181036000830152610a5181610a15565b9050919050565b7f5a65726f20616464726573730000000000000000000000000000000000000000600082015250565b6000610a8e600c8361092c565b9150610a9982610a58565b602082019050919050565b60006020820190508181036000830152610abd81610a81565b9050919050565b7f456d707479204944000000000000000000000000000000000000000000000000600082015250565b6000610afa60088361092c565b9150610b0582610ac4565b602082019050919050565b60006020820190508181036000830152610b2981610aed565b9050919050565b7f456d707479204449440000000000000000000000000000000000000000000000600082015250565b6000610b6660098361092c565b9150610b7182610b30565b602082019050919050565b60006020820190508181036000830152610b9581610b59565b9050919050565b600081905092915050565b6000610bb282610921565b610bbc8185610b9c565b9350610bcc81856020860161093d565b80840191505092915050565b6000610be48284610ba7565b915081905092915050565b7f4e487b7100000000000000000000000000000000000000000000000000000000600052602260045260246000fd5b60006002820490506001821680610c3657607f821691505b602082108103610c4957610c48610bef565b5b50919050565b60008190508160005260206000209050919050565b60006020601f8301049050919050565b600082821b905092915050565b600060088302610cb17fffffffffffffffffffffffffffffffffffffffffffffffffffffffffffffffff82610c74565b610cbb8683610c74565b95508019841693508086168417925050509392505050565b6000819050919050565b6000819050919050565b6000610d02610cfd610cf884610cd3565b610cdd565b610cd3565b9050919050565b6000819050919050565b610d1c83610ce7565b610d30610d2882610d09565b848454610c81565b825550505050565b600090565b610d45610d38565b610d50818484610d13565b505050565b5b81811015610d7457610d69600082610d3d565b600181019050610d56565b5050565b601f821115610db957610d8a81610c4f565b610d9384610c64565b81016020851015610da2578190505b610db6610dae85610c64565b830182610d55565b50505b505050565b600082821c905092915050565b6000610ddc60001984600802610dbe565b1980831691505092915050565b6000610df58383610dcb565b9150826002028217905092915050565b610e0e82610921565b67ffffffffffffffff811115610e2757610e266106ff565b5b610e318254610c1e565b610e3c828285610d78565b600060209050601f831160018114610e6f5760008415610e5d578287015190505b610e678582610de9565b865550610ecf565b601f198416610e7d86610c4f565b60005b82811015610ea557848901518255600182019150602085019450602081019050610e80565b86831015610ec25784890151610ebe601f891682610dcb565b8355505b6001600288020188555050505b50505050505056fea2646970667358221220f26518471764c2649f3bd5c3657bd5178fc1b1afd1d51c9192a42d6ee13f500564736f6c634300081c0033",
  "linkReferences": {},
  "deployedLinkReferences": {}
}